:020000020000FC
:040000000C94340028
:060040000C942C010000ED
:1000680008E00EBF0FEF0DBF60E003E005BD01E043
:1000780000936E00789400E100937C0007E40093FD
:100088007A000FE007B90FEF0AB904B910E0B1E040
:10009800A0E00CD00C944D006030F1F3089518B92D
:1000A8001BB915B90895B1E0A0E008950D9130E0AD
:1000B80040E051E007FB46F906FB47F905FB30F93C
:1000C80004FB31F903FB32F902FB33F901FB34F984
:1000D80000FB35F94BB935B958B9DEDFE0DF60E030
:1000E8000D9130E040E052E007FB46F906FB47F986
:1000F80005FB30F904FB31F903FB32F902FB33F954
:1001080001FB34F900FB35F94BB935B958B9C4DFEF
:10011800C6DF60E00D9130E040E054E007FB46F9AF
:1001280006FB47F905FB30F904FB31F903FB32F90B
:1001380002FB33F901FB34F900FB35F94BB935B94A
:1001480058B9AADFACDF60E00D9130E040E058E03C
:1001580007FB46F906FB47F905FB30F904FB31F9C3
:1001680003FB32F902FB33F901FB34F900FB35F9E3
:100178004BB935B958B990DF92DF60E00D9130E0A6
:1001880044E050E007FB46F906FB47F905FB30F968
:1001980004FB31F903FB32F902FB33F901FB34F9B3
:1001A80000FB35F94BB935B958B976DF78DF60E02F
:1001B8000D9130E048E050E007FB46F906FB47F9AF
:1001C80005FB30F904FB31F903FB32F902FB33F983
:1001D80001FB34F900FB35F94BB935B958B95CDF87
:1001E8005EDF60E00D9130E040E150E007FB46F94A
:1001F80006FB47F905FB30F904FB31F903FB32F93B
:1002080002FB33F901FB34F900FB35F94BB935B979
:1002180058B942DF44DF60E00C9130E040E250E042
:1002280007FB46F906FB47F905FB30F904FB31F9F2
:1002380003FB32F902FB33F901FB34F900FB35F912
:100248004BB935B958B928DF2ADF60E02CDF0895AB
:1002580061E018950F9301E000FB0F9300917C007B
:0602680002F900937C0086
:00000001FF
