:020000020000FC
:040000000C94340028
:060040000C94EE0100002B
:1000680004E6802F05E6E02E08E00EBF0FEF0DBF77
:1000780060E003E005BD01E000936E0078940FE0B6
:1000880007B90FEF0AB904B910E070E0B1E0A0E0D9
:1000980016D0D4D172E0B5D19FD13CD2DFD121D0D6
:1000A8000C944F006030F1F3089518B91BB915B9D5
:1000B8000895B1E0A0E00895D1E0C8E0089500E017
:1000C80000930001009301010093020100930301D2
:1000D80000930401009305010093060100930701B2
:1000E80008950D9131E03093250130E030932401DB
:1000F8003093260107FB36F93093260106FB37F9C2
:100108003093260105FB30F93093240104FB31F9C3
:100118003093240103FB32F93093240102FB33F9B5
:100128003093240101FB34F93093240100FB35F9A5
:1001380030932401309126013BB93091240135B91F
:100148003091250138B9AEDFB0DF60E00D9132E0C3
:100158003093250130E0309324013093260107FBCA
:1001680036F93093260106FB37F93093260105FB53
:1001780030F93093240104FB31F93093240103FB57
:1001880032F93093240102FB33F93093240101FB47
:1001980034F93093240100FB35F930932401309170
:1001A80026013BB93091240135B93091250138B980
:1001B80079DF7BDF60E00D9134E03093250130E09A
:1001C800309324013093260107FB36F9309326013A
:1001D80006FB37F93093260105FB30F930932401EB
:1001E80004FB31F93093240103FB32F930932401E5
:1001F80002FB33F93093240101FB34F930932401D5
:1002080000FB35F930932401309126013BB9309138
:10021800240135B93091250138B944DF46DF60E063
:100228000D9130E03093250130E03093240134E023
:100238003093260107FB36F93093260106FB37F980
:100248003093260105FB30F93093240104FB31F982
:100258003093240103FB32F93093240102FB33F974
:100268003093240101FB34F93093240100FB35F964
:1002780030932401309126013BB93091240135B9DE
:100288003091250138B90EDF10DF60E00D9130E0C4
:100298003093250130E03093240138E03093260173
:1002A80007FB36F93093260106FB37F93093260110
:1002B80005FB30F93093240104FB31F93093240114
:1002C80003FB32F93093240102FB33F93093240104
:1002D80001FB34F93093240100FB35F930932401F4
:1002E800309126013BB93091240135B9309125016F
:1002F80038B9D8DEDADE60E00D9130E030932501C0
:1003080030E03093240130E13093260107FB36F9C1
:100318003093260106FB37F93093260105FB30F9A7
:100328003093240104FB31F93093240103FB32F9A3
:100338003093240102FB33F93093240101FB34F993
:100348003093240100FB35F93093240130912601C4
:100358003BB93091240135B93091250138B9A2DE75
:10036800A4DE60E00D9130E03093250130E0309359
:10037800240130E23093260107FB36F93093260139
:1003880006FB37F93093260105FB30F93093240139
:1003980004FB31F93093240103FB32F93093240133
:1003A80002FB33F93093240101FB34F93093240123
:1003B80000FB35F930932401309126013BB9309187
:1003C800240135B93091250138B96CDE6EDE60E064
:1003D80070DE089561E0189580937C0007EC009327
:1003E8007A0000917A0006FD0C940A0200917800C8
:1003F800F090790008ECF016E8F402E3F016E0F06B
:100408000895E0927C0007EC00937A0000917A004E
:1004180006FD0C94F50100917800F090790008EC45
:10042800F01630F402E3F01608F0089572E008952B
:1004380074E0089571E0089573E0089502E0009370
:10044800270102E00093220137DE02E1099302E26C
:10045800099302E3099330DE08950895009123017A
:100468000F5F00932301009123010436B0F300E0ED
:100478000093230190E09F5FCF5F3881C15039938B
:10048800009122019017B9F700912701071B7130DD
:10049800B9F07230D1F07330E9F0743001F10091A5
:1004A80027013881301B3039F8F4303118F1532FD7
:1004B8005F70593028F5513040F13883FDDD0895DB
:1004C8007093270101E00C9455027093270100EF07
:1004D8000C945502709327010FEF0C9455027093FA
:1004E800270100E10C9455025FE03523305F388323
:1004F800E3DD08955FE0352330583883DDDD089566
:10050800307F3F5F3883D8DD0895307F385F388388
:10051800D3DD0895D4DD90E09F933881532F40EFC9
:10052800342336953695369536954FE0542309E0B1
:1005380091E0051B951721F011969F5F9517D1F74C
:1005480091E04C9150E8931721F056959F5F9317CF
:10055800E1F7452B4C93ADDD21969F5F0091220179
:100568000F5F9F919F5F90179F93B9F69F91A4DDAE
:020578000895E4
:00000001FF
