:020000020000FC
:040000000C94340028
:060040000C9425020000F3
:1000680004E6802F05E6E02E08E00EBF0FEF0DBF77
:1000780060E003E005BD01E000936E0078940FE0B6
:1000880007B90FEF0AB904B910E070E0B1E0A0E0D9
:1000980018D00BD272E0FFD2EBD1D5D1B1D227D292
:1000A80036D321D00C9450006030F1F3089518B97C
:1000B8001BB915B90895B1E0A0E00895D1E0C9E0F1
:1000C800089500E0009300010093010100930201EC
:1000D80000930301009304010093050100930601B6
:1000E8000093070108950D9131E030934C0130E001
:1000F80030934B0130934D0107FB36F930934D0196
:1001080006FB37F930934D0105FB30F930934B016D
:1001180004FB31F930934B0103FB32F930934B0167
:1001280002FB33F930934B0101FB34F930934B0157
:1001380000FB35F930934B0130914D013BB93091BB
:100148004B0135B930914C0138B9AEDFB0DF60E012
:100158000D9132E030934C0130E030934B013093F5
:100168004D0107FB36F930934D0106FB37F9309303
:100178004D0105FB30F930934B0104FB31F9309305
:100188004B0103FB32F930934B0102FB33F93093F7
:100198004B0101FB34F930934B0100FB35F93093E7
:1001A8004B0130914D013BB930914B0135B930913C
:1001B8004C0138B979DF7BDF60E00D9134E0309392
:1001C8004C0130E030934B0130934D0107FB36F979
:1001D80030934D0106FB37F930934D0105FB30F99B
:1001E80030934B0104FB31F930934B0103FB32F997
:1001F80030934B0102FB33F930934B0101FB34F987
:1002080030934B0100FB35F930934B0130914D0190
:100218003BB930914B0135B930914C0138B944DFC5
:1002280046DF60E00D9138E030934C0130E03093C8
:100238004B0130934D0107FB36F930934D0106FB16
:1002480037F930934D0105FB30F930934B0104FB2E
:1002580031F930934B0103FB32F930934B0102FB28
:1002680033F930934B0101FB34F930934B0100FB18
:1002780035F930934B0130914D013BB930914B0129
:1002880035B930914C0138B90FDF11DF60E00D91BD
:1002980030E030934C0130E030934B0134E0309340
:1002A8004D0107FB36F930934D0106FB37F93093C2
:1002B8004D0105FB30F930934B0104FB31F93093C4
:1002C8004B0103FB32F930934B0102FB33F93093B6
:1002D8004B0101FB34F930934B0100FB35F93093A6
:1002E8004B0130914D013BB930914B0135B93091FB
:1002F8004C0138B9D9DEDBDE60E00D9130E0309397
:100308004C0130E030934B0138E030934D0107FB4E
:1003180036F930934D0106FB37F930934D0105FB53
:1003280030F930934B0104FB31F930934B0103FB57
:1003380032F930934B0102FB33F930934B0101FB47
:1003480034F930934B0100FB35F930934B01309170
:100358004D013BB930914B0135B930914C0138B959
:10036800A3DEA5DE60E00D9130E030934C0130E073
:1003780030934B0130E130934D0107FB36F9309350
:100388004D0106FB37F930934D0105FB30F93093E9
:100398004B0104FB31F930934B0103FB32F93093E5
:1003A8004B0102FB33F930934B0101FB34F93093D5
:1003B8004B0100FB35F930934B0130914D013BB9AE
:1003C80030914B0135B930914C0138B96DDE6FDE93
:1003D80060E00D9130E030934C0130E030934B01F8
:1003E80030E230934D0107FB36F930934D0106FB9F
:1003F80037F930934D0105FB30F930934B0104FB7D
:1004080031F930934B0103FB32F930934B0102FB76
:1004180033F930934B0101FB34F930934B0100FB66
:1004280035F930934B0130914D013BB930914B0177
:1004380035B930914C0138B937DE39DE60E03BDE42
:10044800089561E0189580937C0007EC00937A008A
:1004580000917A0006FD0C94410200917800F0901A
:10046800790008ECF016E8F402E3F016E0F00895DD
:10047800E0927C0007EC00937A0000917A0006FD78
:100488000C942C0200917800F090790008ECF0169A
:1004980030F402E3F01608F0089572E0089574E06D
:1004A800089571E0089573E0089502E000934E0105
:1004B80002E00093490102DE02E1099302E2099396
:1004C80002E30993FBDD0895089500E000934F01CE
:1004D80090E0009149019F5FCF5F9017E1F7902F5F
:1004E8009150C1500881CF5F9030D1F7E7DD00917E
:1004F8004F01013050F700914A010F5F00934A0104
:1005080000914A01043600F300E000934A0190E0AC
:100518009F5FCF5F3881C15039930091490190178F
:10052800B9F700914E01013031F0023041F003304B
:1005380051F0043061F07330B1F00C94AF027430B4
:1005480091F00C94AF02713071F00C94AF027230DC
:1005580051F00C94AF02713049F1723061F173308F
:1005680079F1743091F1013031F0023039F0033013
:1005780041F0043049F001E00C94CB0200EF0C94F8
:10058800CB020FEF0C94CB0200E10C94CB02388124
:10059800301B3039F8F4303118F1532F5F7059306F
:1005A80028F5513040F1388389DD089570934E0164
:1005B80001E00C94CB0270934E0100EF0C94CB0237
:1005C80070934E010FEF0C94CB0270934E0100E133
:1005D8000C94CB025FE03523305F38836FDD0895DC
:1005E8005FE035233058388369DD0895307F3F5FF9
:1005F800388364DD0895307F385F38835FDD089580
:1006080060DD90E09F933881532F40EF3423369577
:100618003695369536954FE0542309E091E0051B51
:10062800951721F011969F5F9517D1F791E04C919E
:1006380050E8931721F056959F5F9317E1F7452BE4
:100648004C9339DD21969F5F009149010F5F9F917F
:100658009F5F90179F93B9F69F9130DD0091080135
:10066800302F3F70007F069506950695069590E019
:100678009F5F931719F011960C943C0391E04C91ED
:1006880050E8901721F056959F5F9017E1F7452B9A
:100698004C9311DD089502E80093080108958093B2
:1006A8007C0007EC00937A0000917A0006FD0C9418
:1006B800580300917800302F039F039F039F039FE7
:1006C800039F07700F5F000F000F000F000F0093CC
:1006D800080100930001E0927C0007EC00937A0087
:1006E80000917A0006FD0C94740300917800009143
:1006F8007800302F039F039F039F039F039F309130
:10070800080107700F5F030F009308010895D6DCF6
:100718000091080190E0309149019F5FCF5F9317E6
:10072800E1F73881301759F408E6509149015F5FC5
:100738005093490141E040934F0100930801BEDC0A
:02074800089512
:00000001FF
