:020000020000FC
:040000000C94340028
:1000680008E00EBF0FEF0DBF0FE007B90FEF0AB999
:1000780004B910E0B1E0A0E020E00AEA0C93AF5F19
:1000880005E50C93A15015D00C9447000000000022
:100098000000000000000000000000000000000058
:1000A8000000089518B91BB915B90895B1E0A0E08A
:1000B80008950D9130E040E051E007FB46F906FB5A
:1000C80047F905FB30F904FB31F903FB32F902FB70
:1000D80033F901FB34F900FB35F94BB935B958B997
:1000E800D5DFE0DF0C9130E040E052E007FB46F955
:1000F80006FB47F905FB30F904FB31F903FB32F93C
:1001080002FB33F901FB34F900FB35F94BB935B97A
:0601180058B9CCDF089588
:00000001FF
