:020000020000FC
:040000000C94340028
:060040000C9425020000F3
:1000680004E6802F05E6E02E08E00EBF0FEF0DBF77
:1000780060E003E005BD01E000936E0078940FE0B6
:1000880007B90FEF0AB904B910E070E0B1E0A0E0D9
:1000980018D00BD272E009D3EBD1D5D1BBD231D273
:1000A80040D321D00C9450006030F1F3089518B972
:1000B8001BB915B90895B1E0A0E00895D1E0C9E0F1
:1000C800089500E0009300010093010100930201EC
:1000D80000930301009304010093050100930601B6
:1000E8000093070108950D9131E030934C0130E001
:1000F80030934B0130934D0107FB36F930934D0196
:1001080006FB37F930934D0105FB30F930934B016D
:1001180004FB31F930934B0103FB32F930934B0167
:1001280002FB33F930934B0101FB34F930934B0157
:1001380000FB35F930934B0130914D013BB93091BB
:100148004B0135B930914C0138B9AEDFB0DF60E012
:100158000D9132E030934C0130E030934B013093F5
:100168004D0107FB36F930934D0106FB37F9309303
:100178004D0105FB30F930934B0104FB31F9309305
:100188004B0103FB32F930934B0102FB33F93093F7
:100198004B0101FB34F930934B0100FB35F93093E7
:1001A8004B0130914D013BB930914B0135B930913C
:1001B8004C0138B979DF7BDF60E00D9134E0309392
:1001C8004C0130E030934B0130934D0107FB36F979
:1001D80030934D0106FB37F930934D0105FB30F99B
:1001E80030934B0104FB31F930934B0103FB32F997
:1001F80030934B0102FB33F930934B0101FB34F987
:1002080030934B0100FB35F930934B0130914D0190
:100218003BB930914B0135B930914C0138B944DFC5
:1002280046DF60E00D9138E030934C0130E03093C8
:100238004B0130934D0107FB36F930934D0106FB16
:1002480037F930934D0105FB30F930934B0104FB2E
:1002580031F930934B0103FB32F930934B0102FB28
:1002680033F930934B0101FB34F930934B0100FB18
:1002780035F930934B0130914D013BB930914B0129
:1002880035B930914C0138B90FDF11DF60E00D91BD
:1002980030E030934C0130E030934B0134E0309340
:1002A8004D0107FB36F930934D0106FB37F93093C2
:1002B8004D0105FB30F930934B0104FB31F93093C4
:1002C8004B0103FB32F930934B0102FB33F93093B6
:1002D8004B0101FB34F930934B0100FB35F93093A6
:1002E8004B0130914D013BB930914B0135B93091FB
:1002F8004C0138B9D9DEDBDE60E00D9130E0309397
:100308004C0130E030934B0138E030934D0107FB4E
:1003180036F930934D0106FB37F930934D0105FB53
:1003280030F930934B0104FB31F930934B0103FB57
:1003380032F930934B0102FB33F930934B0101FB47
:1003480034F930934B0100FB35F930934B01309170
:100358004D013BB930914B0135B930914C0138B959
:10036800A3DEA5DE60E00D9130E030934C0130E073
:1003780030934B0130E130934D0107FB36F9309350
:100388004D0106FB37F930934D0105FB30F93093E9
:100398004B0104FB31F930934B0103FB32F93093E5
:1003A8004B0102FB33F930934B0101FB34F93093D5
:1003B8004B0100FB35F930934B0130914D013BB9AE
:1003C80030914B0135B930914C0138B96DDE6FDE93
:1003D80060E00D9130E030934C0130E030934B01F8
:1003E80030E230934D0107FB36F930934D0106FB9F
:1003F80037F930934D0105FB30F930934B0104FB7D
:1004080031F930934B0103FB32F930934B0102FB76
:1004180033F930934B0101FB34F930934B0100FB66
:1004280035F930934B0130914D013BB930914B0177
:1004380035B930914C0138B937DE39DE60E03BDE42
:10044800089561E0189580937C0007EC00937A008A
:1004580000917A0006FD0C94410200917800F0901A
:10046800790008ECF016E8F402E3F016E0F00895DD
:10047800E0927C0007EC00937A0000917A0006FD78
:100488000C942C0200917800F090790008ECF0169A
:1004980030F402E3F01608F0089572E0089574E06D
:1004A800089571E0089573E0089500E000934F0106
:1004B80002E000934E0102E000934901FFDD02E1F2
:1004C800099302E2099302E30993F8DD0895089578
:1004D80090E090934F01009149010F5F009349010B
:1004E8009F5FCF5F9017E1F79150C1500881CF5FB0
:1004F8009F5F08839150C1509030B1F7DFDD0C94B5
:100508008E0200914A010F5F00934A0100914A014F
:100518000436E8F200914F010030D1F600E0009374
:100528004A0190E09F5FCF5F3881C15039930091B5
:1005380049019017B9F700914E01013031F00230AE
:1005480041F0033051F0043061F07330B1F00C9495
:10055800B902743091F00C94B902713071F00C94B6
:10056800B902723051F00C94B902713049F172300D
:1005780061F1733079F1743091F1013031F002306A
:1005880039F0033041F0043049F001E00C94D50211
:1005980000EF0C94D5020FEF0C94D50200E10C94F7
:1005A800D5023881301B3039F8F4303118F1532F27
:1005B8005F70593028F5513040F138837FDD089558
:1005C80070934E0101E00C94D50270934E0100EF38
:1005D8000C94D50270934E010FEF0C94D5027093D2
:1005E8004E0100E10C94D5025FE03523305F38837B
:1005F80065DD08955FE03523305838835FDD089561
:10060800307F3F5F38835ADD0895307F385F388305
:1006180055DD089556DD90E09F933881532F40EFC4
:10062800342336953695369536954FE0542309E0B0
:1006380091E0051B951721F011969F5F9517D1F74B
:1006480091E04C9150E8931721F056959F5F9317CE
:10065800E1F7452B4C932FDD21969F5F00914901CF
:100668000F5F9F919F5F90179F93B9F69F9126DD2B
:1006780000910801302F3F70007F0695069506957A
:10068800069590E09F5F931719F011960C94460316
:1006980091E04C9150E8901721F056959F5F901784
:1006A800E1F7452B4C9307DD089502E80093080114
:1006B800089580937C0007EC00937A0000917A00FB
:1006C80006FD0C94620300917800302F039F039F6E
:1006D800039F039F039F07700F5F000F000F000F1A
:1006E800000F0093080100930001E0927C0007ECE2
:1006F80000937A0000917A0006FD0C947E03009125
:10070800780000917800302F039F039F039F039F79
:10071800039F3091080107700F5F030F00930801D2
:100728000895CCDC0091080190E0309149019F5F69
:10073800CF5F9317E1F73881301731F441E04093E8
:0C0748004F0108E600930801B9DC089599
:00000001FF
