:020000020000FC
:040000000C94340028
:060040000C9439020000DF
:1000680004E6802F05E6E02E08E00EBF0FEF0DBF77
:1000780060E003E005BD01E000936E0078940FE0B6
:1000880007B90FEF0AB904B910E070E0B1E0A0E0D9
:100098001AD02AD272E006E60093500127D3FDD188
:1000A800E6D1D9D24DD233D00C9453006030F1F35D
:1000B800089518B91BB915B90895B1E0A0E00895DD
:1000C800D1E0C9E0089500E0009300010093010128
:1000D80000930201009303010093040100930501BA
:1000E800009306010093070108950FEF00930001A4
:1000F800009301010093020100930301009304019E
:1001080000930501009306010093070108950D91DE
:1001180031E030934C0130E030934B0130934D0186
:1001280007FB36F930934D0106FB37F930934D0143
:1001380005FB30F930934B0104FB31F930934B0147
:1001480003FB32F930934B0102FB33F930934B0137
:1001580001FB34F930934B0100FB35F930934B0127
:1001680030914D013BB930914B0135B930914C017B
:1001780038B99CDF9EDF60E00D9132E030934C018E
:1001880030E030934B0130934D0107FB36F9309343
:100198004D0106FB37F930934D0105FB30F93093DB
:1001A8004B0104FB31F930934B0103FB32F93093D7
:1001B8004B0102FB33F930934B0101FB34F93093C7
:1001C8004B0100FB35F930934B0130914D013BB9A0
:1001D80030914B0135B930914C0138B967DF69DF8F
:1001E80060E00D9134E030934C0130E030934B01E6
:1001F80030934D0107FB36F930934D0106FB37F973
:1002080030934D0105FB30F930934B0104FB31F974
:1002180030934B0103FB32F930934B0102FB33F966
:1002280030934B0101FB34F930934B0100FB35F956
:1002380030934B0130914D013BB930914B0135B9A9
:1002480030914C0138B932DF34DF60E00D9138E08D
:1002580030934C0130E030934B0130934D0107FB54
:1002680036F930934D0106FB37F930934D0105FB04
:1002780030F930934B0104FB31F930934B0103FB08
:1002880032F930934B0102FB33F930934B0101FBF8
:1002980034F930934B0100FB35F930934B01309121
:1002A8004D013BB930914B0135B930914C0138B90A
:1002B800FDDEFFDE60E00D9130E030934C0130E070
:1002C80030934B0134E030934D0107FB36F93093FE
:1002D8004D0106FB37F930934D0105FB30F930939A
:1002E8004B0104FB31F930934B0103FB32F9309396
:1002F8004B0102FB33F930934B0101FB34F9309386
:100308004B0100FB35F930934B0130914D013BB95E
:1003180030914B0135B930914C0138B9C7DEC9DE8F
:1003280060E00D9130E030934C0130E030934B01A8
:1003380038E030934D0107FB36F930934D0106FB49
:1003480037F930934D0105FB30F930934B0104FB2D
:1003580031F930934B0103FB32F930934B0102FB27
:1003680033F930934B0101FB34F930934B0100FB17
:1003780035F930934B0130914D013BB930914B0128
:1003880035B930914C0138B991DE93DE60E00D91BA
:1003980030E030934C0130E030934B0130E1309342
:1003A8004D0107FB36F930934D0106FB37F93093C1
:1003B8004D0105FB30F930934B0104FB31F93093C3
:1003C8004B0103FB32F930934B0102FB33F93093B5
:1003D8004B0101FB34F930934B0100FB35F93093A5
:1003E8004B0130914D013BB930914B0135B93091FA
:1003F8004C0138B95BDE5DDE60E00D9130E0309392
:100408004C0130E030934B0130E230934D0107FB53
:1004180036F930934D0106FB37F930934D0105FB52
:1004280030F930934B0104FB31F930934B0103FB56
:1004380032F930934B0102FB33F930934B0101FB46
:1004480034F930934B0100FB35F930934B0130916F
:100458004D013BB930914B0135B930914C0138B958
:1004680025DE27DE60E029DE089561E01895809397
:100478007C0007EC00937A0000917A0006FD0C944A
:10048800560200917800F090790008ECF01630F5EB
:1004980002E3F016402F28F10895E0927C0007EC63
:1004A80000937A0000917A0006FD0C9440020091B6
:1004B8007800F090790008ECF01668F402E3F01682
:1004C80038F00895009150010F0D009350010895E0
:1004D80072E0F8DF089574E0F5DF089571E0F2DF67
:1004E800089573E0EFDF089500E000934F0102E004
:1004F80000934E0102E000934901E2DD02E1099315
:1005080002E2099302E30993DBDD0895089590E080
:1005180090934F01009149010F5F009349019F5F3C
:10052800CF5F9017E1F79150C1500881CF5F9F5F6F
:1005380008839150C1509030B1F7C2DD0C94AD02E0
:1005480000914A010F5F00934A0100914A01043665
:10055800E8F200914F010030D1F600E000934A0123
:1005680090E09F5FCF5F3881C15039930091490176
:100578009017B9F700914E01013031F0023041F087
:10058800033051F0043061F07330B1F00C94D802AC
:10059800743091F00C94D802713071F00C94D80238
:1005A800723051F00C94D802713059F1723071F1F7
:1005B800733089F17430A1F1013031F0023039F033
:1005C800033041F0043049F001E00C94F40200EFEC
:1005D8000C94F4020FEF0C94F40200E10C94F40272
:1005E8003881301B303908F5303128F1532F5F70CE
:1005F800593038F5513050F1388362DD82D094D0CB
:10060800089570934E0101E00C94F40270934E012A
:1006180000EF0C94F40270934E010FEF0C94F40267
:1006280070934E0100E10C94F4025FE03523305FD3
:10063800388346DD08955FE035233058388340DD40
:100648000895307F3F5F38833BDD0895307F385F02
:10065800388336DD089537DD90E09F933881532F36
:1006680040EF342336953695369536954FE054232A
:1006780009E091E0051B951721F011969F5F9517EA
:10068800D1F791E04C9150E8931721F056959F5F70
:100698009317E1F7452B4C9310DD21969F5F00914E
:1006A80049010F5F9F919F5F90179F93B9F69F91A4
:1006B80007DD00910801302F3F70007F06950695F1
:1006C8000695069590E09F5F931719F011960C9484
:1006D800670391E04C9150E8901721F056959F5F81
:1006E8009017E1F7452B4C93E8DC089500915001F1
:1006F800302F00773770005F3F5F032B00930801AE
:100708000895DEDC0091080190E0309149019F5F77
:10071800CF5F9317E1F73881301721F441E0409318
:100728004F01E4DFCDDC08950091490190E09F5F1F
:10073800CF5F9017E1F70881C3DC90E03091490161
:1007480059919F5F051721F09317D1F7B9DC0895E8
:08075800CCDCDDDC0C94AC03E9
:00000001FF
