:020000020000FC
:040000000C94340028
:060040000C9424020000F4
:1000680004E6802F05E6E02E08E00EBF0FEF0DBF77
:1000780060E003E005BD01E000936E0078940FE0B6
:1000880007B90FEF0AB904B910E070E0B1E0A0E0D9
:1000980017D00AD272E0E8D2EAD1D4D19AD214D2D7
:1000A80021D00C9450006030F1F3089518B91BB9B1
:1000B80015B90895B1E0A0E00895D1E0C9E0089528
:1000C80000E00093000100930101009302010093F6
:1000D80003010093040100930501009306010093B6
:1000E800070108950D9131E03093260130E03093F7
:1000F80025013093270107FB36F93093270106FBCA
:1001080037F93093270105FB30F93093250104FBBB
:1001180031F93093250103FB32F93093250102FBB5
:1001280033F93093250101FB34F93093250100FBA5
:1001380035F930932501309127013BB930912501DC
:1001480035B93091260138B9AEDFB0DF60E00D91E6
:1001580032E03093260130E03093250130932701B7
:1001680007FB36F93093270106FB37F9309327014F
:1001780005FB30F93093250104FB31F93093250153
:1001880003FB32F93093250102FB33F93093250143
:1001980001FB34F93093250100FB35F93093250133
:1001A800309127013BB93091250135B930912601AD
:1001B80038B979DF7BDF60E00D9134E030932601B8
:1001C80030E0309325013093270107FB36F930934F
:1001D800270106FB37F93093270105FB30F93093E7
:1001E800250104FB31F93093250103FB32F93093E3
:1001F800250102FB33F93093250101FB34F93093D3
:10020800250100FB35F930932501309127013BB9D1
:100218003091250135B93091260138B944DF46DFE0
:1002280060E00D9138E03093260130E030932501ED
:100238003093270107FB36F93093270106FB37F97E
:100248003093270105FB30F93093250104FB31F980
:100258003093250103FB32F93093250102FB33F972
:100268003093250101FB34F93093250100FB35F962
:1002780030932501309127013BB93091250135B9DB
:100288003091260138B90FDF11DF60E00D9130E0C1
:100298003093260130E03093250134E03093270174
:1002A80007FB36F93093270106FB37F9309327010E
:1002B80005FB30F93093250104FB31F93093250112
:1002C80003FB32F93093250102FB33F93093250102
:1002D80001FB34F93093250100FB35F930932501F2
:1002E800309127013BB93091250135B9309126016C
:1002F80038B9D9DEDBDE60E00D9130E030932601BD
:1003080030E03093250138E03093270107FB36F9B8
:100318003093270106FB37F93093270105FB30F9A5
:100328003093250104FB31F93093250103FB32F9A1
:100338003093250102FB33F93093250101FB34F991
:100348003093250100FB35F93093250130912701C1
:100358003BB93091250135B93091260138B9A3DE72
:10036800A5DE60E00D9130E03093260130E0309357
:10037800250130E13093270107FB36F93093270137
:1003880006FB37F93093270105FB30F93093250137
:1003980004FB31F93093250103FB32F93093250131
:1003A80002FB33F93093250101FB34F93093250121
:1003B80000FB35F930932501309127013BB9309185
:1003C800250135B93091260138B96DDE6FDE60E060
:1003D8000D9130E03093260130E03093250130E272
:1003E8003093270107FB36F93093270106FB37F9CD
:1003F8003093270105FB30F93093250104FB31F9CF
:100408003093250103FB32F93093250102FB33F9C0
:100418003093250101FB34F93093250100FB35F9B0
:1004280030932501309127013BB93091250135B929
:100438003091260138B937DE39DE60E03BDE0895B9
:1004480061E0189580937C0007EC00937A00009196
:100458007A0006FD0C94400200917800F090790033
:1004680008ECF016E8F402E3F016E0F00895E092E4
:100478007C0007EC00937A0000917A0006FD0C944A
:100488002B0200917800F090790008ECF01630F417
:1004980002E3F01608F0089572E0089574E00895F4
:1004A80071E0089573E0089502E00093280102E0E6
:1004B8000093230102DE02E1099302E2099302E3B9
:1004C8000993FBDD08950895009124010F5F0093BF
:1004D8002401009124010436B0F300E000932401C4
:1004E80090E09F5FCF5F3881C1503993009123011D
:1004F8009017B9F700912801013031F0023041F02E
:10050800033051F0043061F07330B1F00C9498026C
:10051800743091F00C949802713071F00C94980238
:10052800723051F00C949802713049F1723061F1D7
:10053800733079F1743091F1013031F0023039F0D3
:10054800033041F0043049F001E00C94B40200EFAC
:100558000C94B4020FEF0C94B40200E10C94B402B2
:100568003881301B3039F8F4303118F1532F5F706F
:10057800593028F5513040F138839FDD0895709344
:10058800280101E00C94B4027093280100EF0C9448
:10059800B402709328010FEF0C94B40270932801F1
:1005A80000E10C94B4025FE03523305F388385DDC9
:1005B80008955FE03523305838837FDD0895307F14
:1005C8003F5F38837ADD0895307F385F388375DD83
:1005D800089576DD90E09F933881532F40EF3423C0
:1005E80036953695369536954FE0542309E091E0D7
:1005F800051B951721F011969F5F9517D1F791E08C
:100608004C9150E8931721F056959F5F9317E1F7A7
:10061800452B4C934FDD21969F5F009123010F5F7F
:100628009F919F5F90179F93B9F69F9146DD009128
:100638000801302F3F70007F0695069506950695B0
:1006480090E09F5F931719F011960C94250391E0A1
:100658004C9150E8901721F056959F5F9317E1F75A
:10066800452B4C9327DD089503E600930801089570
:1006780080937C0007EC00937A0000917A0006FDD5
:100688000C94410300917800009308010093000145
:10069800E0927C0007EC00937A0000917A0006FD56
:1006A8000C9451030091780000917800302F039F3B
:1006B800039F039F039F039F3091080107700F5FFB
:0806C800030F009308010895DF
:00000001FF
