:020000020000FC
:040000000C94340028
:060040000C94E701000032
:1000680004E6802F05E6E02E08E00EBF0FEF0DBF77
:1000780060E003E005BD01E000936E0078940FE0B6
:1000880007B90FEF0AB904B910E070E0B1E0A0E0D9
:1000980000E0009300010093010100930201009326
:1000A80003010093040100930501009306010093E6
:1000B80007018BD1A5D1709300010CD00C945D0081
:1000C8006030F1F3089518B91BB915B90895B1E076
:1000D800A0E008950D9131E03093230130E0309392
:1000E80022013093240107FB36F93093240106FBE3
:1000F80037F93093240105FB30F93093220104FBD2
:1001080031F93093220103FB32F93093220102FBCB
:1001180033F93093220101FB34F93093220100FBBB
:1001280035F930932201309124013BB930912201F5
:1001380035B93091230138B9C3DFC5DF60E00D91CF
:1001480032E03093230130E03093220130932401D0
:1001580007FB36F93093240106FB37F93093240165
:1001680005FB30F93093220104FB31F93093220169
:1001780003FB32F93093220102FB33F93093220159
:1001880001FB34F93093220100FB35F93093220149
:10019800309124013BB93091220135B930912301C6
:1001A80038B98EDF90DF60E00D9134E030932301A1
:1001B80030E0309322013093240107FB36F9309365
:1001C800240106FB37F93093240105FB30F93093FD
:1001D800220104FB31F93093220103FB32F93093F9
:1001E800220102FB33F93093220101FB34F93093E9
:1001F800220100FB35F930932201309124013BB9EB
:100208003091220135B93091230138B959DF5BDFCC
:1002180060E00D9130E03093230130E0309322010B
:1002280034E03093240107FB36F93093240106FBB0
:1002380037F93093240105FB30F93093220104FB90
:1002480031F93093220103FB32F93093220102FB8A
:1002580033F93093220101FB34F93093220100FB7A
:1002680035F930932201309124013BB930912201B4
:1002780035B93091230138B923DF25DF60E00D91CE
:1002880030E03093230130E03093220138E030939E
:10029800240107FB36F93093240106FB37F9309324
:1002A800240105FB30F93093220104FB31F9309326
:1002B800220103FB32F93093220102FB33F9309318
:1002C800220101FB34F93093220100FB35F9309308
:1002D8002201309124013BB93091220135B9309186
:1002E800230138B9EDDEEFDE60E00D9130E03093A8
:1002F800230130E03093220130E13093240107FBE1
:1003080036F93093240106FB37F93093240105FBB5
:1003180030F93093220104FB31F93093220103FBB9
:1003280032F93093220102FB33F93093220101FBA9
:1003380034F93093220100FB35F9309322013091D2
:1003480024013BB93091220135B93091230138B9E4
:10035800B7DEB9DE60E00D9130E03093230130E084
:100368003093220130E23093240107FB36F93093B1
:10037800240106FB37F93093240105FB30F930934B
:10038800220104FB31F93093220103FB32F9309347
:10039800220102FB33F93093220101FB34F9309337
:1003A800220100FB35F930932201309124013BB939
:1003B8003091220135B93091230138B981DE83DECD
:1003C80060E085DE089561E0189580937C0007EC75
:1003D80000937A0000917A0006FD0C94EE010091DA
:1003E8007800F090790008ECF01620F402E3F0169B
:1003F80020F0089522E0722B08952DEF72230895BE
:10040800E0927C0007EC00937A0000917A0006FDE8
:100418000C94090200917800F090790008ECF0162D
:1004280020F402E3F01620F0089521E0722B0895DD
:060438002EEF722308956F
:00000001FF
