:020000020000FC
:040000000C94340028
:060040000C942F010000EA
:1000680008E00EBF0FEF0DBF60E003E005BD01E043
:1000780000936E00789408E100937C0007E40093F5
:100088007A000FE007B90FEF0AB904B910E0B1E040
:10009800A0E0E3D00FD17C930CD00C944D006030DD
:1000A800F1F3089518B91BB915B90895B1E0A0E0A6
:1000B80008950D9130E040E051E007FB46F906FB5A
:1000C80047F905FB30F904FB31F903FB32F902FB70
:1000D80033F901FB34F900FB35F94BB935B958B997
:1000E800DEDFE0DF60E00D9130E040E052E007FB4A
:1000F80046F906FB47F905FB30F904FB31F903FB28
:1001080032F902FB33F901FB34F900FB35F94BB93D
:1001180035B958B9C4DFC6DF60E00D9130E040E082
:1001280054E007FB46F906FB47F905FB30F904FBE9
:1001380031F903FB32F902FB33F901FB34F900FB17
:1001480035F94BB935B958B9AADFACDF60E00D9184
:1001580030E040E058E007FB46F906FB47F905FBAD
:1001680030F904FB31F903FB32F902FB33F901FBE7
:1001780034F900FB35F94BB935B958B990DF92DF3E
:1001880060E00D9130E044E050E007FB46F906FBE3
:1001980047F905FB30F904FB31F903FB32F902FB9F
:1001A80033F901FB34F900FB35F94BB935B958B9C6
:1001B80076DF78DF60E00D9130E048E050E007FB43
:1001C80046F906FB47F905FB30F904FB31F903FB57
:1001D80032F902FB33F901FB34F900FB35F94BB96D
:1001E80035B958B95CDF5EDF60E00D9130E040E181
:1001F80050E007FB46F906FB47F905FB30F904FB1D
:1002080031F903FB32F902FB33F901FB34F900FB46
:1002180035F94BB935B958B942DF44DF60E00C9184
:1002280030E040E250E007FB46F906FB47F905FBE2
:1002380030F904FB31F903FB32F902FB33F901FB16
:1002480034F900FB35F94BB935B958B928DF2ADF3D
:1002580060E02CDF089561E018950F9300E000F945
:100268000F9300FB01FB02FB03FB00937C000F9143
:1002780001E000F90F9300917C0002FB05FB00935D
:100288007C000F910C9449010F91009178000F9315
:1002980000917C0005FD0C9448010F91083C10F476
:1002A800023320F001E000F971FB089500E000F945
:1002B80071FB08950F9300E000F90F9300FB01FB19
:1002C80002FB03FB00937C000F9101E000F90F9300
:1002D80000917C0003FB05FB00937C000F910C94BC
:1002E80076010F91009178000F9300917C0005FD35
:1002F8000C9475010F91083C10F4023320F001E0D2
:0E03080000F970FB089500E000F970FB089505
:00000001FF
