:020000020000FC
:040000000C94340028
:060040000C9436020000E2
:1000680004E6802F05E6E02E08E00EBF0FEF0DBF77
:1000780060E003E005BD01E000936E0078940FE0B6
:1000880007B90FEF0AB904B910E070E0B1E0A0E0D9
:1000980017D01CD272E01CD3FCD1E6D1CED242D20A
:1000A80033D00C9450006030F1F3089518B91BB99F
:1000B80015B90895B1E0A0E00895D1E0C9E0089528
:1000C80000E00093000100930101009302010093F6
:1000D80003010093040100930501009306010093B6
:1000E800070108950FEF00930001009301010093A9
:1000F800020100930301009304010093050100939A
:1001080006010093070108950D9131E030934C01E9
:1001180030E030934B0130934D0107FB36F93093B3
:100128004D0106FB37F930934D0105FB30F930934B
:100138004B0104FB31F930934B0103FB32F9309347
:100148004B0102FB33F930934B0101FB34F9309337
:100158004B0100FB35F930934B0130914D013BB910
:1001680030914B0135B930914C0138B99CDF9EDF95
:1001780060E00D9132E030934C0130E030934B0158
:1001880030934D0107FB36F930934D0106FB37F9E3
:1001980030934D0105FB30F930934B0104FB31F9E5
:1001A80030934B0103FB32F930934B0102FB33F9D7
:1001B80030934B0101FB34F930934B0100FB35F9C7
:1001C80030934B0130914D013BB930914B0135B91A
:1001D80030914C0138B967DF69DF60E00D9134E098
:1001E80030934C0130E030934B0130934D0107FBC5
:1001F80036F930934D0106FB37F930934D0105FB75
:1002080030F930934B0104FB31F930934B0103FB78
:1002180032F930934B0102FB33F930934B0101FB68
:1002280034F930934B0100FB35F930934B01309191
:100238004D013BB930914B0135B930914C0138B97A
:1002480032DF34DF60E00D9138E030934C0130E06C
:1002580030934B0130934D0107FB36F930934D0134
:1002680006FB37F930934D0105FB30F930934B010C
:1002780004FB31F930934B0103FB32F930934B0106
:1002880002FB33F930934B0101FB34F930934B01F6
:1002980000FB35F930934B0130914D013BB930915A
:1002A8004B0135B930914C0138B9FDDEFFDE60E015
:1002B8000D9130E030934C0130E030934B0134E045
:1002C80030934D0107FB36F930934D0106FB37F9A2
:1002D80030934D0105FB30F930934B0104FB31F9A4
:1002E80030934B0103FB32F930934B0102FB33F996
:1002F80030934B0101FB34F930934B0100FB35F986
:1003080030934B0130914D013BB930914B0135B9D8
:1003180030914C0138B9C7DEC9DE60E00D9130E09C
:1003280030934C0130E030934B0138E030934D016D
:1003380007FB36F930934D0106FB37F930934D0131
:1003480005FB30F930934B0104FB31F930934B0135
:1003580003FB32F930934B0102FB33F930934B0125
:1003680001FB34F930934B0100FB35F930934B0115
:1003780030914D013BB930914B0135B930914C0169
:1003880038B991DE93DE60E00D9130E030934C0196
:1003980030E030934B0130E130934D0107FB36F9E3
:1003A80030934D0106FB37F930934D0105FB30F9C9
:1003B80030934B0104FB31F930934B0103FB32F9C5
:1003C80030934B0102FB33F930934B0101FB34F9B5
:1003D80030934B0100FB35F930934B0130914D01BF
:1003E8003BB930914B0135B930914C0138B95BDEDE
:1003F8005DDE60E00D9130E030934C0130E03093E9
:100408004B0130E230934D0107FB36F930934D0133
:1004180006FB37F930934D0105FB30F930934B015A
:1004280004FB31F930934B0103FB32F930934B0154
:1004380002FB33F930934B0101FB34F930934B0144
:1004480000FB35F930934B0130914D013BB93091A8
:100458004B0135B930914C0138B925DE27DE60E013
:1004680029DE089561E0189580937C0007EC0093DD
:100478007A0000917A0006FD0C94520200917800EF
:10048800F090790008ECF016E8F402E3F016E0F0DA
:100498000895E0927C0007EC00937A0000917A00BE
:1004A80006FD0C943D0200917800F090790008EC6C
:1004B800F01630F402E3F01608F0089572E008959B
:1004C80074E0089571E0089573E0089500E00093E2
:1004D8004F0102E000934E0102E000934901EDDD77
:1004E80002E1099302E2099302E30993E6DD089524
:1004F800089590E090934F01009149010F5F009398
:1005080049019F5FCF5F9017E1F79150C150088173
:10051800CF5F9F5F08839150C1509030B1F7CDDD18
:100528000C949F0200914A010F5F00934A010091C9
:100538004A010436E8F200914F010030D1F600E09C
:1005480000934A0190E09F5FCF5F3881C150399393
:10055800009149019017B9F700914E01013031F02F
:10056800023041F0033051F0043061F07330B1F0E3
:100578000C94CA02743091F00C94CA02713071F074
:100588000C94CA02723051F00C94CA02713059F1BD
:10059800723071F1733089F17430A1F1013031F0AA
:1005A800023039F0033041F0043049F001E00C9496
:1005B800E60200EF0C94E6020FEF0C94E60200E16D
:1005C8000C94E6023881301B303908F5303128F1B7
:1005D800532F5F70593038F5513050F138836DDD45
:1005E800B3D0C7D0089570934E0101E00C94E60291
:1005F80070934E0100EF0C94E60270934E010FEFDA
:100608000C94E60270934E0100E10C94E6025FE060
:100618003523305F388351DD08955FE03523305846
:1006280038834BDD0895307F3F5F388346DD08957A
:10063800307F385F388341DD089542DD90E09F9335
:100648003881532F40EF34233695369536953695B5
:100658004FE0542309E091E0051B951721F011960E
:100668009F5F9517D1F791E04C9150E8931721F0CF
:1006780056959F5F9317E1F7452B4C931BDD219609
:100688009F5F009149010F5F9F919F5F90179F9314
:10069800B9F69F9112DD00910801302F3F70007F5D
:1006A800069506950695069590E09F5F931719F0B5
:1006B80011960C94590391E04C9150E8901721F051
:1006C80056959F5F9017E1F7452B4C93F3DC0895FF
:1006D80002E800930801089580937C0007EC0093DA
:1006E8007A0000917A0006FD0C9475030091780059
:1006F800302F039F039F039F039F039F07700F5F84
:10070800000F000F000F000F009308010093000175
:10071800E0927C0007EC00937A0000917A0006FDD5
:100728000C9491030091780000917800302F039F7A
:10073800039F039F039F039F3091080107700F5F7A
:10074800030F009308010895B8DC0091080190E0B8
:10075800309149019F5FCF5F9317E1F738813017D8
:1007680031F441E040934F0108E600930801A5DC0D
:1007780008950091490190E09F5FCF5F9017E1F7DE
:1007880008819BDC90E03091490159919F5F0517E2
:1007980021F09317D1F791DC0895A4DCB5DC0C9413
:0207A800D1037B
:00000001FF
