:020000020000FC
:040000000C94340028
:060040000C9444010000D5
:1000680008E00EBF0FEF0DBF60E003E005BD01E043
:1000780000936E0078940FE007B90FEF0AB904B93E
:1000880010E0B1E0A0E020E003EC0C9311960DEB3A
:100098000C9311960AE50C9311960EE70C931196A2
:1000A8000AE50C93119606E60C9311960DEB0C934A
:1000B800119603EC0C930FD011D00C9460006030B3
:1000C800F1F30000089518B91BB915B90000000034
:1000D800000000000895B1E0A0E008950D9130E01F
:1000E80040E051E007FB46F906FB47F905FB30F90C
:1000F80004FB31F903FB32F902FB33F901FB34F954
:1001080000FB35F94BB935B958B9D9DFDCDF60E008
:100118000D9130E040E052E007FB46F906FB47F955
:1001280005FB30F904FB31F903FB32F902FB33F923
:1001380001FB34F900FB35F94BB935B958B9BFDFC4
:10014800C2DF60E00D9130E040E054E007FB46F983
:1001580006FB47F905FB30F904FB31F903FB32F9DB
:1001680002FB33F901FB34F900FB35F94BB935B91A
:1001780058B9A5DFA8DF60E00D9130E040E058E015
:1001880007FB46F906FB47F905FB30F904FB31F993
:1001980003FB32F902FB33F901FB34F900FB35F9B3
:1001A8004BB935B958B98BDF8EDF60E00D9130E07F
:1001B80041E050E007FB46F906FB47F905FB30F93B
:1001C80004FB31F903FB32F902FB33F901FB34F983
:1001D80000FB35F94BB935B958B971DF74DF60E008
:1001E8000D9130E044E050E007FB46F906FB47F983
:1001F80005FB30F904FB31F903FB32F902FB33F953
:1002080001FB34F900FB35F94BB935B958B957DF5B
:100218005ADF60E00D9130E048E050E007FB46F916
:1002280006FB47F905FB30F904FB31F903FB32F90A
:1002380002FB33F901FB34F900FB35F94BB935B949
:1002480058B93DDF40DF60E00FEF30E040E150E0BB
:1002580007FB46F906FB47F905FB30F904FB31F9C2
:1002680003FB32F902FB33F901FB34F900FB35F9E2
:100278004BB935B958B923DF26DF60E02CDF089584
:0402880061E0189584
:00000001FF
