:020000020000FC
:040000000C94340028
:060040000C94EB0100002E
:1000680004E6802F05E6E02E08E00EBF0FEF0DBF77
:1000780060E001E005BD01E000936E0078940FE0B8
:1000880007B90FEF0AB904B910E070E0B1E0A0E0D9
:1000980013D0D5D104D2E0D121D00C944E006030D9
:1000A800F1F3089518B91BB915B90895B1E0A0E0A6
:1000B8000895D1E0C8E0089500E00093000100939E
:1000C80001010093020100930301009304010093CE
:1000D8000501009306010093070108950D9131E091
:1000E8003093250130E0309324013093260107FB3B
:1000F80036F93093260106FB37F93093260105FBC4
:1001080030F93093240104FB31F93093240103FBC7
:1001180032F93093240102FB33F93093240101FBB7
:1001280034F93093240100FB35F9309324013091E0
:1001380026013BB93091240135B93091250138B9F0
:10014800AEDFB0DF60E00D9132E03093250130E0A2
:10015800309324013093260107FB36F930932601AA
:1001680006FB37F93093260105FB30F9309324015B
:1001780004FB31F93093240103FB32F93093240155
:1001880002FB33F93093240101FB34F93093240145
:1001980000FB35F930932401309126013BB93091A9
:1001A800240135B93091250138B979DF7BDF60E06A
:1001B8000D9134E03093250130E0309324013093E1
:1001C800260107FB36F93093260106FB37F93093F1
:1001D800260105FB30F93093240104FB31F93093F3
:1001E800240103FB32F93093240102FB33F93093E5
:1001F800240101FB34F93093240100FB35F93093D5
:100208002401309126013BB93091240135B9309150
:10021800250138B944DF46DF60E00D9130E03093C6
:10022800250130E03093240134E03093260107FBA8
:1002380036F93093260106FB37F93093260105FB82
:1002480030F93093240104FB31F93093240103FB86
:1002580032F93093240102FB33F93093240101FB76
:1002680034F93093240100FB35F93093240130919F
:1002780026013BB93091240135B93091250138B9AF
:100288000EDF10DF60E00D9130E03093250130E0A3
:100298003093240138E03093260107FB36F9309378
:1002A800260106FB37F93093260105FB30F9309318
:1002B800240104FB31F93093240103FB32F9309314
:1002C800240102FB33F93093240101FB34F9309304
:1002D800240100FB35F930932401309126013BB904
:1002E8003091240135B93091250138B9D8DEDADEEC
:1002F80060E00D9130E03093250130E03093240127
:1003080030E13093260107FB36F93093260106FBCE
:1003180037F93093260105FB30F93093240104FBAB
:1003280031F93093240103FB32F93093240102FBA5
:1003380033F93093240101FB34F93093240100FB95
:1003480035F930932401309126013BB930912401CD
:1003580035B93091250138B9A2DEA4DE60E00D91EF
:1003680030E03093250130E03093240130E23093BF
:10037800260107FB36F93093260106FB37F930933F
:10038800260105FB30F93093240104FB31F9309341
:10039800240103FB32F93093240102FB33F9309333
:1003A800240101FB34F93093240100FB35F9309323
:1003B8002401309126013BB93091240135B930919F
:1003C800250138B96CDE6EDE60E070DE089561E00C
:1003D800189580937C0007EC00937A0000917A00CE
:1003E80006FD0C94F20100917800F090790008EC79
:1003F800F01620F402E3F01620F0089522E0722BA4
:1004080008952DEF72230895E0927C0007EC009385
:100418007A0000917A0006FD0C940D020091780094
:10042800F090790008ECF01620F402E3F01620F0C2
:10043800089521E0722B08952EEF7223089502E0AB
:100448000093220136DE02E1099302E2099302E3F6
:1004580009932FDE08950895009123010F5F0093FB
:100468002301009123010E3BB0F300E00093230128
:1004780090E09F5FCF5F3881C1503993009122018E
:100488009017B9F73881305F303918F4388311DEA6
:1004980008955FE03523305F38830BDE08950CDE66
:1004A80090E09F933881532F40EF3423369536954B
:1004B800369536954FE0542309E091E0051B9517D2
:1004C80021F011969F5F9517D1F791E04C9150E874
:1004D800931721F056959F5F9317E1F7452B4C939F
:1004E800E5DD21969F5F009122010F5F9F919F5F3D
:0C04F80090179F93B9F69F91DCDD0895EA
:00000001FF
